{
  "contractName": "Election",
  "abi": [
    {
      "constant": true,
      "inputs": [
        {
          "name": "",
          "type": "uint256"
        }
      ],
      "name": "parties",
      "outputs": [
        {
          "name": "id",
          "type": "uint256"
        },
        {
          "name": "partyName",
          "type": "string"
        },
        {
          "name": "voteCount",
          "type": "uint256"
        }
      ],
      "payable": false,
      "stateMutability": "view",
      "type": "function"
    },
    {
      "constant": true,
      "inputs": [
        {
          "name": "",
          "type": "address"
        }
      ],
      "name": "voters",
      "outputs": [
        {
          "name": "",
          "type": "bool"
        }
      ],
      "payable": false,
      "stateMutability": "view",
      "type": "function"
    },
    {
      "constant": true,
      "inputs": [],
      "name": "partiesCount",
      "outputs": [
        {
          "name": "",
          "type": "uint256"
        }
      ],
      "payable": false,
      "stateMutability": "view",
      "type": "function"
    },
    {
      "inputs": [],
      "payable": false,
      "stateMutability": "nonpayable",
      "type": "constructor"
    },
    {
      "constant": false,
      "inputs": [
        {
          "name": "_partyId",
          "type": "uint256"
        }
      ],
      "name": "vote",
      "outputs": [],
      "payable": false,
      "stateMutability": "nonpayable",
      "type": "function"
    },
    {
      "constant": true,
      "inputs": [
        {
          "name": "_partyId",
          "type": "uint256"
        }
      ],
      "name": "getVote",
      "outputs": [
        {
          "name": "",
          "type": "uint256"
        }
      ],
      "payable": false,
      "stateMutability": "view",
      "type": "function"
    }
  ],
  "bytecode": "0x608060405234801561001057600080fd5b5061005e6040805190810160405280600b81526020017f50617274692042756c616e0000000000000000000000000000000000000000008152506100fd640100000000026401000000009004565b6100ab6040805190810160405280600d81526020017f50617274692042696e74616e67000000000000000000000000000000000000008152506100fd640100000000026401000000009004565b6100f86040805190810160405280600d81526020017f5061727469204d657264656b61000000000000000000000000000000000000008152506100fd640100000000026401000000009004565b61021f565b6002600081548092919060010191905055506060604051908101604052806002548152602001828152602001600081525060016000600254815260200190815260200160002060008201518160000155602082015181600101908051906020019061016992919061017a565b506040820151816002015590505050565b828054600181600116156101000203166002900490600052602060002090601f016020900481019282601f106101bb57805160ff19168380011785556101e9565b828001600101855582156101e9579182015b828111156101e85782518255916020019190600101906101cd565b5b5090506101f691906101fa565b5090565b61021c91905b80821115610218576000816000905550600101610200565b5090565b90565b6104068061022e6000396000f3fe60806040526004361061006d576000357c0100000000000000000000000000000000000000000000000000000000900463ffffffff1680630121b93f146100725780635a55c1f0146100ad57806370651a18146100fc578063a3ec138d146101be578063c56a354014610227575b600080fd5b34801561007e57600080fd5b506100ab6004803603602081101561009557600080fd5b8101908080359060200190929190505050610252565b005b3480156100b957600080fd5b506100e6600480360360208110156100d057600080fd5b81019080803590602001909291905050506102d2565b6040518082815260200191505060405180910390f35b34801561010857600080fd5b506101356004803603602081101561011f57600080fd5b81019080803590602001909291905050506102f2565b6040518084815260200180602001838152602001828103825284818151815260200191508051906020019080838360005b83811015610181578082015181840152602081019050610166565b50505050905090810190601f1680156101ae5780820380516001836020036101000a031916815260200191505b5094505050505060405180910390f35b3480156101ca57600080fd5b5061020d600480360360208110156101e157600080fd5b81019080803573ffffffffffffffffffffffffffffffffffffffff1690602001909291905050506103b4565b604051808215151515815260200191505060405180910390f35b34801561023357600080fd5b5061023c6103d4565b6040518082815260200191505060405180910390f35b60016000803373ffffffffffffffffffffffffffffffffffffffff1673ffffffffffffffffffffffffffffffffffffffff16815260200190815260200160002060006101000a81548160ff021916908315150217905550600160008281526020019081526020016000206002016000815480929190600101919050555050565b600060016000838152602001908152602001600020600201549050919050565b6001602052806000526040600020600091509050806000015490806001018054600181600116156101000203166002900480601f0160208091040260200160405190810160405280929190818152602001828054600181600116156101000203166002900480156103a45780601f10610379576101008083540402835291602001916103a4565b820191906000526020600020905b81548152906001019060200180831161038757829003601f168201915b5050505050908060020154905083565b60006020528060005260406000206000915054906101000a900460ff1681565b6002548156fea165627a7a72305820d859277a8494ce09543809ae81721947166094de0bbaf5381f5d81046f90f9ee0029",
  "source": "// SPDX-License-Identifier: GPL-3.0\r\n\r\npragma solidity >=0.4.0 <0.9.0;\r\n\r\ncontract Election {\r\n    //Model a candidate\r\n    struct Party {\r\n        uint id;\r\n        string partyName;\r\n        uint voteCount;\r\n    }\r\n\r\n    // Store accounts which have voted\r\n    mapping(address => bool) public voters;\r\n    // Store Candidates\r\n    // Fetch Candidate\r\n    mapping(uint => Party) public parties; //uint represents candidateId\r\n    // Store Candidate Count\r\n    uint public partiesCount;\r\n\r\n    // Constructor\r\n    constructor() public {\r\n        addParty(\"Parti Bulan\");\r\n        addParty(\"Parti Bintang\");\r\n        addParty(\"Parti Merdeka\");\r\n    }\r\n\r\n    // Add party name\r\n    function addParty(string memory _partyName) private {\r\n        partiesCount++;\r\n        parties[partiesCount] = Party(partiesCount, _partyName, 0); // Add with incremented partiesCount and number of vote\r\n    }\r\n\r\n    // Vote\r\n    function vote(uint _partyId) public {\r\n        // record that voter has voted\r\n        voters[msg.sender] = true;\r\n\r\n        // update candidate vote count\r\n        parties[_partyId].voteCount++;\r\n    }\r\n\r\n    // Return vote count\r\n    function getVote(uint _partyId) public view returns (uint256) {\r\n        return parties[_partyId].voteCount;\r\n    }\r\n}\r\n",
  "sourcePath": "E:/BlockchainDiploma/pru15/contracts/Election.sol",
  "compiler": {
    "name": "solc",
    "version": "0.5.0+commit.1d4f565a.Emscripten.clang"
  },
  "schemaVersion": "3.0.1",
  "updatedAt": "2022-11-14T15:22:49.960Z",
  "devdoc": {
    "methods": {}
  },
  "userdoc": {
    "methods": {}
  }
}